S019000050345F696E74657272757063696F6E65732E737265632E
S11300000C9434000C9442040C94A3040C948403C4
S11300100C9449000C94E3030C9449000C9449009B
S11300200C9449000C9449000C9449000C94490028
S11300300C9449000C9449000C9449000C94490018
S11300400C9449000C9449000C9449000C94490008
S11300500C9449000C9449000C9449000C944900F8
S11300600C9449000C94490011241FBECFEFD8E032
S1130070DEBFCDBF11E0A0E0B1E0EEE7FBE002C0DF
S113008005900D92AA32B107D9F70E9404050C9489
S1130090BD050C940000982F907F9695969598B97D
S11300A098B19E7F98B998B1926098B9EFE9FFE052
S11300B03197F1F700C0000098B19D7F98B9EFE344
S11300C0FCE93197F1F700C0000090E0880F991F18
S11300D0880F991F8C7388B988B18E7F88B988B1CD
S11300E0826088B98FE99FE00197F1F700C00000B2
S11300F088B18D7F88B9EFE3FCE93197F1F700C04F
S11301000000089582E00E944B0088E20E944B00A8
S11301108EE00E944B0086E00E944B0081E00E942A
S11301204B0080E80E944B000895982F907F96958D
S1130130969598B998B1936098B9EFE9FFE0319733
S1130140F1F700C0000098B19D7F98B998B19E7FE7
S113015098B9EFE3FCE93197F1F700C0000090E0B3
S1130160880F991F880F991F8C7388B988B1836091
S113017088B98FE99FE00197F1F700C0000088B1CA
S11301808D7F88B988B18E7F88B9EFE3FCE9319718
S1130190F1F700C00000089580E40E944B008FE94D
S11301A09FE00197F1F700C000008FE10E949500E5
S11301B08FE99FE00197F1F700C0000085E10E94FC
S11301C095008FE99FE00197F1F700C0000085E1F9
S11301D00E9495008FE99FE00197F1F700C00000AD
S11301E08FE10E9495008FE99FE00197F1F700C02D
S11301F000008AE00E9495008FE99FE00197F1F7E3
S113020000C0000085E10E9495008FE99FE00197FE
S1130210F1F700C000008FE10E9495008FE99FE094
S11302200197F1F700C0000080E00E9495008FE97B
S11302309FE00197F1F700C00000089588E40E9450
S11302404B008FE99FE00197F1F700C0000080E0C8
S11302500E9495008FE99FE00197F1F700C000002C
S11302608AE00E9495008FE99FE00197F1F700C0B2
S113027000008FE10E9495008FE99FE00197F1F75C
S113028000C000008FE10E9495008FE99FE0019774
S1130290F1F700C000008FE10E9495008FE99FE014
S11302A00197F1F700C000008EE00E9495008FE9ED
S11302B09FE00197F1F700C0000084E00E949500E0
S11302C08FE99FE00197F1F700C0000080E00E94F1
S11302D095008FE99FE00197F1F700C000000895B1
S11302E080E50E944B008FE99FE00197F1F700C081
S11302F0000080E00E9495008FE99FE00197F1F7EC
S113030000C0000083E00E9495008FE99FE0019700
S1130310F1F700C0000087E00E9495008FE99FE09C
S11303200197F1F700C0000086E10E9495008FE973
S11303309FE00197F1F700C0000088E00E9495005B
S11303408FE99FE00197F1F700C0000084E10E946B
S113035095008FE99FE00197F1F700C0000080E06D
S11303600E9495008FE99FE00197F1F700C000001B
S113037080E00E9495008FE99FE00197F1F700C0AB
S11303800000089588E50E944B008FE99FE00197E3
S1130390F1F700C0000080E00E9495008FE99FE023
S11303A00197F1F700C000008AE00E9495008FE9F0
S11303B09FE00197F1F700C000008EE00E949500D5
S11303C08FE99FE00197F1F700C0000084E00E94EC
S11303D095008FE99FE00197F1F700C0000084E0E9
S11303E00E9495008FE99FE00197F1F700C000009B
S11303F08EE00E9495008FE99FE00197F1F700C01D
S113040000008AE00E9495008FE99FE00197F1F7D0
S113041000C0000080E00E949500089580E60E94DC
S11304204B008FE99FE00197F1F700C000008EE0D8
S11304300E9495008FE99FE00197F1F700C000004A
S11304408AE10E9495008FE99FE00197F1F700C0CF
S113045000008EE10E9495008FE99FE00197F1F77B
S113046000C000008AE10E9495008FE99FE0019797
S1130470F1F700C0000080E10E9495008FE99FE041
S11304800197F1F700C000008AE10E9495008FE90E
S11304909FE00197F1F700C000008EE10E949500F3
S11304A08FE99FE00197F1F700C000008EE10E9400
S11304B095008FE99FE00197F1F700C000000895CF
S11304C088E60E944B008FE99FE00197F1F700C096
S11304D000008FE10E9495008FE99FE00197F1F7FA
S11304E000C0000085E10E9495008FE99FE001971C
S11304F0F1F700C000008FE10E9495008FE99FE0B2
S11305000197F1F700C0000081E10E9495008FE996
S11305109FE00197F1F700C0000084E00E9495007D
S11305208FE99FE00197F1F700C0000081E10E948C
S113053095008FE99FE00197F1F700C000008BE17F
S11305400E9495008FE99FE00197F1F700C0000039
S11305508FE10E9495008FE99FE00197F1F700C0B9
S11305600000089580E70E944B008FE99FE0019707
S1130570F1F700C000008FE10E9495008FE99FE031
S11305800197F1F700C0000085E10E9495008FE912
S11305909FE00197F1F700C000008FE10E949500F1
S11305A08FE99FE00197F1F700C0000084E00E940A
S11305B095008FE99FE00197F1F700C0000084E007
S11305C00E9495008FE99FE00197F1F700C00000B9
S11305D085E10E9495008FE99FE00197F1F700C043
S11305E000008AE00E9495008FE99FE00197F1F7EF
S11305F000C0000085E10E9495008FE99FE001970B
S1130600F1F700C00000089588E70E944B008FE9CD
S11306109FE00197F1F700C0000080E00E94950080
S11306208FE99FE00197F1F700C000008AE00E9483
S113063095008FE99FE00197F1F700C000008EE07C
S11306400E9495008FE99FE00197F1F700C0000038
S11306508AE00E9495008FE99FE00197F1F700C0BE
S113066000008FE10E9495008FE99FE00197F1F768
S113067000C000008EE00E9495008FE99FE0019782
S1130680F1F700C000008AE00E9495008FE99FE026
S11306900197F1F700C0000080E00E9495008FE907
S11306A09FE00197F1F700C0000008950F931F9396
S11306B0CF93DF938C01C0E0D0E003C00E9495008B
S11306C02196F801EC0FFD1F80818111F7CFDF9196
S11306D0CF911F910F91089581E00E944B000895DE
S11306E082E00E944B0008958CE10E944B00089523
S11306F088E10E944B00089580680E944B00089591
S1130700806C0E944B0008951F920F920FB60F92B7
S113071011240F931F932F933F934F935F936F93E2
S11307207F938F939F93AF93BF93CF93DF93EF9375
S1130730FF930E946C0380E00E947C0380E091E0C0
S11307400E94560300E010E026C00E9474032FEFBD
S113075081EE94E0215080409040E1F700C0000019
S1130760219602C0C0E0D0E0CF30D10574F3C0E0E0
S1130770D0E00CC00E9478032FEF81EE94E021506A
S113078080409040E1F700C000002196CF30D105B1
S11307908CF30F5F1F4F0230110524F3FF91EF918B
S11307A0DF91CF91BF91AF919F918F917F916F9185
S11307B05F914F913F912F911F910F910F900FBE19
S11307C00F901F9018951F920F920FB60F9211243D
S11307D00F931F932F933F934F935F936F937F9345
S11307E08F939F93AF93BF93CF93DF93EF93FF9335
S11307F00E946C0380E00E9480038BE091E00E94E1
S1130800560300E010E026C00E9474032FEF81EE2F
S113081094E0215080409040E1F700C00000219610
S113082002C0C0E0D0E0CF30D10574F3C0E0D0E026
S11308300CC00E9478032FEF81EE94E02150804099
S11308409040E1F700C000002196CF30D1058CF331
S11308500F5F1F4F0230110524F3FF91EF91DF91D9
S1130860CF91BF91AF919F918F917F916F915F9144
S11308704F913F912F911F910F910F900FBE0F90A9
S11308801F9018951F920F920FB60F9211240F9379
S11308901F932F933F934F935F936F937F938F9304
S11308A09F93AF93BF93CF93DF93EF93FF930E94F4
S11308B06C0380E00E94800384E00E94950085E040
S11308C00E94950000E010E026C00E9474032FEF00
S11308D081EE94E0215080409040E1F700C0000098
S11308E0219602C0C0E0D0E0CF30D10574F3C0E05F
S11308F0D0E00CC00E9478032FEF81EE94E02150E9
S113090080409040E1F700C000002196CF30D1052F
S11309108CF30F5F1F4F0230110524F3FF91EF9109
S1130920DF91CF91BF91AF919F918F917F916F9103
S11309305F914F913F912F911F910F910F900FBE97
S11309400F901F9018951F920F920FB60F921124BB
S11309500F931F932F933F934F935F936F937F93C3
S11309608F939F93AF93BF93CF93DF93EF93FF93B3
S11309700E946C0380E00E947C0386E00E94950044
S113098087E00E94950000E010E026C00E947403F6
S11309902FEF81EE94E0215080409040E1F700C0B9
S11309A00000219602C0C0E0D0E0CF30D10574F33E
S11309B0C0E0D0E00CC00E9478032FEF81EE94E0F9
S11309C0215080409040E1F700C000002196CF30D4
S11309D0D1058CF30F5F1F4F0230110524F3FF91F3
S11309E0EF91DF91CF91BF91AF919F918F917F91C3
S11309F06F915F914F913F912F911F910F910F90A4
S1130A000FBE0F901F9018958FEF87B9F8948DB390
S1130A1083608DBBE9E6F0E0808183608083E8E653
S1130A20F0E0808181608083ABE6B0E08C918062ED
S1130A308C93808184608083EDE6F0E08081806126
S1130A40808378940E9482000E946C030E94CC00F0
S1130A502FEF81EE94E0215080409040E1F700C0F8
S1130A6000000E941E012FEF81EE94E0215080408F
S1130A709040E1F700C000000E9470012FEF81EE6A
S1130A8094E0215080409040E1F700C000000E94B3
S1130A90C2012FEF81EE94E0215080409040E1F7B5
S1130AA000C000000E940E022FEF81EE94E021505E
S1130AB080409040E1F700C000000E9460022FEFE8
S1130AC081EE94E0215080409040E1F700C00000A6
S1130AD00E94B2022FEF81EE94E0215080409040BA
S1130AE0E1F700C000000E9404032FEF81EE94E0C0
S1130AF0215080409040E1F700C000000E946C0348
S1130B000E94700380E00E947C0386E191E00E94D1
S1130B10560380E00E94800382E291E00E94560323
S1130B2000E010E026C00E9474032FEF82E597E0F6
S1130B30215080409040E1F700C00000219602C09F
S1130B40C0E0D0E0CF30D10574F3C0E0D0E00CC0F9
S1130B500E9478032FEF82E597E021508040904077
S1130B60E1F700C000002196CF30D1058CF30F5F70
S1110B701F4F0230110524F369CFF894FFCF14
S1130B7E5550494954412D49504E0032303135318A
S1130B8E373032373600456C697A61727261726140
S10D0B9E73004775737461766F00ED
S9030000FC
