:100000000C9434000C943E000C943E000C943E0082
:100010000C943E000C943E000C943E000C943E0068
:100020000C943E000C943E000C943E000C943E0058
:100030000C943E000C943E000C943E000C943E0048
:100040000C943E000C943E000C943E000C943E0038
:100050000C943E000C943E000C943E000C943E0028
:100060000C943E000C943E0011241FBECFEFD8E04C
:10007000DEBFCDBF0E9440000C94A1000C94000094
:100080001AB814B88FEF87B989B190E023B1211164
:1000900017C085E588B92FEF4EE954E22150404062
:1000A0005040E1F700C000008AE288B96FEF8EE9A6
:1000B00094E2615080409040E1F700C00000E4CF3E
:1000C00023B1223079F4959587959595879588B9D0
:1000D0002FEF40E752E0215040405040E1F700C090
:1000E0000000D2CF83B1813079F60EC028B9220F3B
:1000F000331F6FEF41EE54E0615040405040E1F754
:1001000000C00000019604C081E090E021E030E0F2
:10011000893091055CF381E090E020E430E00DC08F
:1001200028B9359527956FEF41EE54E06150404076
:100130005040E1F700C0000001968930910584F33A
:06014000A3CFF894FFCFED
:00000001FF
