S00E000050322D4C43442E7372656394
S11300000C9434000C9449000C9449000C9449005D
S11300100C9449000C9449000C9449000C94490038
S11300200C9449000C9449000C9449000C94490028
S11300300C9449000C9449000C9449000C94490018
S11300400C9449000C9449000C9449000C94490008
S11300500C9449000C9449000C9449000C944900F8
S11300600C9449000C94490011241FBECFEFD8E032
S1130070DEBFCDBF11E0A0E0B1E0EAECF3E002C0E6
S113008005900D92A232B107D9F70E949E010C94FB
S1130090E3010C940000982F907F969596959BB958
S11300A09BB19B7F9BB99BB198609BB9EFE3FCE943
S11300B03197F1F700C000009BB1977F9BB9FFEF28
S11300C021EE34E0F15020403040E1F700C0000060
S11300D090E0880F991F880F991F8C738BB98BB18F
S11300E08B7F8BB98BB188608BB98FE39CE90197C7
S11300F0F1F700C000008BB1877F8BB99FEFE1EE71
S1130100F4E09150E040F040E1F700C000000895B1
S113011082E00E944B0088E20E944B008EE00E9425
S11301204B0086E00E944B0081E00E944B0080E877
S11301300E944B000895982F907F969596959BB9B1
S11301409BB19C609BB9EFE3FCE93197F1F700C0E8
S113015000009BB1977F9BB99BB19B7F9BB9FFEF3D
S113016021EE34E0F15020403040E1F700C00000BF
S113017090E0880F991F880F991F8C738BB98BB1EE
S11301808C608BB98FE39CE90197F1F700C0000004
S11301908BB1877F8BB98BB18B7F8BB99FEFE1EEEE
S11301A0F4E09150E040F040E1F700C00000089511
S11301B080E40E944B008FE39CE90197F1F700C0B3
S11301C000008FE10E949B008FE39CE90197F1F707
S11301D000C0000085E10E949B008FE39CE9019729
S11301E0F1F700C0000085E10E949B008FE39CE9C9
S11301F00197F1F700C000008FE10E949B008FE39C
S11302009CE90197F1F700C000008AE00E949B007E
S11302108FE39CE90197F1F700C0000085E10E949B
S11302209B008FE39CE90197F1F700C000008FE188
S11302300E949B008FE39CE90197F1F700C0000046
S113024080E00E949B008FE39CE90197F1F700C0D6
S11302500000089588E40E944B008FE39CE9019715
S1130260F1F700C0000080E00E949B008FE39CE94E
S11302700197F1F700C000008AE00E949B008FE321
S11302809CE90197F1F700C000008FE10E949B00F8
S11302908FE39CE90197F1F700C000008FE10E9411
S11302A09B008FE39CE90197F1F700C000008FE108
S11302B00E949B008FE39CE90197F1F700C00000C6
S11302C08EE00E949B008FE39CE90197F1F700C048
S11302D0000084E00E949B008FE39CE90197F1F702
S11302E000C0000080E00E949B008FE39CE901971E
S11302F0F1F700C0000008950F931F93CF93DF938D
S11303008C01C0E0D0E003C00E949B002196F8015C
S1130310EC0FFD1F80818111F7CFDF91CF911F91E9
S11303200F91089581E00E944B00089582E00E949D
S11303304B000895806C0E944B0008958FEF8AB99A
S11303400E9488000E9492010E94D8002FEF83ED42
S113035090E3215080409040E1F700C000000E94EB
S11303602A012FEF83ED90E3215080409040E1F784
S113037000C000000E9492010E94960180E091E07A
S11303800E947C0180E00E949B0087E091E00E9433
S11303907C0180E00E949A0181E191E00E947C014D
S11303A080E20E949B0081E00E949B0086E191E034
S11303B00E947C0180E20E949B0081E00E949B00DD
S10D03C080E090E00895F894FFCF68
S11303CA4D6963726F73004176616E7A61646F730B
S11303DA005441564F002041205550494954412068
S10503EA00000D
S9030000FC
