:100000000C9434000C9446000C9446000C9446006A
:100010000C9446000C9446000C9446000C94460048
:100020000C9446000C9446000C9446000C94460038
:100030000C9446000C9446000C9446000C94460028
:100040000C9446000C9446000C9446000C94460018
:100050000C9446000C9446000C9446000C94460008
:100060000C9446000C94460011241FBECFEFD8E03C
:10007000DEBFCDBF21E0A0E0B1E001C01D92A13004
:10008000B207E1F70E9448000C94BB000C940000FA
:1000900014B88FEF85B917B888B98AB983B183705E
:1000A000813019F08230C1F0F9CF86B1877080932A
:1000B000000090E00E94A500809300012FEF83EDE7
:1000C00090E3215080409040E1F700C00000809113
:1000D000000186958BB9E2CF86B1877080930000CE
:1000E00066B168736093000190E00E94AD002FEF4D
:1000F00083ED90E3215080409040E1F700C0000084
:1001000080B586958BB92FEF83ED90E32150804029
:100110009040E1F700C0000081B592B596958795B3
:100120008BB92FEF83ED90E3215080409040E1F7B1
:1001300000C000001BB82FEF83ED90E321508040FA
:100140009040E1F700C00000A9CFF999FECF92BD21
:1001500081BDF89A992780B50895262FF999FECF89
:100160001FBA92BD81BD20BD0FB6F894FA9AF99AD4
:0A0170000FBE01960895F894FFCF2A
:00000001FF
