S01100006C63646D61747269782E737265634B
S11300000C9434000C9451000C9451000C94510045
S11300100C9451000C9451000C9451000C94510018
S11300200C9451000C9451000C9451000C94510008
S11300300C9451000C9451000C9451000C945100F8
S11300400C9451000C9451000C9451000C945100E8
S11300500C9451000C9451000C9451000C945100D8
S11300600C9451000C94510011241FBECFEFD8E022
S1130070DEBFCDBF11E0A0E0B1E0E8EBF3E002C0E9
S113008005900D92A631B107D9F721E0A6E1B1E0C0
S113009001C01D92A831B207E1F70E9487010C94B8
S11300A0DA010C94000085B1823029F118F4813012
S11300B039F06FC08430D1F1883009F451C069C07F
S11300C089B1807F90E08034910569F01CF48097B9
S11300D031F05FC08038910509F05BC008C081E34E
S11300E08093000156C082E38093000152C083E3F1
S11300F0809300014EC089B1807F90E080349105E7
S113010069F01CF4809731F044C08038910509F0FF
S113011040C008C084E3809300013BC085E3809322
S1130120000137C086E38093000133C089B1807F2A
S113013090E08034910561F01CF4809729F029C087
S11301408038910531F508C087E38093000121C010
S113015088E3809300011DC089E38093000119C0E6
S113016089B1807F90E08034910561F01CF4809720
S113017029F00FC08038910561F408C08AE28093A9
S1130180000107C080E38093000103C083E28093F1
S1130190000180910001089585B1823039F08430E6
S11301A041F0813049F482E085B908C084E085B922
S11301B005C088E085B902C081E085B92FEF81EEE2
S11301C094E0215080409040E1F700C00000089581
S11301D0982F907F9695969598B998B19E7F98B9E7
S11301E098B1926098B9EFE9FFE03197F1F700C058
S11301F0000098B19D7F98B9EFE3FCE93197F1F7DE
S113020000C0000090E0880F991F880F991F8C731D
S113021088B988B18E7F88B988B1826088B98FE93E
S11302209FE00197F1F700C0000088B18D7F88B985
S1130230EFE3FCE93197F1F700C00000089582E094
S11302400E94E80088E20E94E8008EE00E94E80034
S113025086E00E94E80081E00E94E80080E80E94B5
S1130260E8000895982F907F9695969598B998B13F
S1130270936098B9EFE9FFE03197F1F700C000000F
S113028098B19D7F98B998B19E7F98B9EFE3FCE946
S11302903197F1F700C0000090E0880F991F880F94
S11302A0991F8C7388B988B1836088B98FE99FE0FE
S11302B00197F1F700C0000088B18D7F88B988B13B
S11302C08E7F88B9EFE3FCE93197F1F700C00000B5
S11302D008950F931F93CF93DF938C01C0E0D0E078
S11302E003C00E9432012196F801EC0FFD1F8081AA
S11302F08111F7CFDF91CF911F910F91089581E084
S11303000E94E8000895806C0E94E80008958FEF31
S113031087B91AB884B90E941F010E947F01809195
S113032016010E9483010E94CC008FE39CE901978F
S1130330F1F700C000000E9453008091000188235F
S113034071F30E94320180910001813469F40E94AA
S11303507F0181E091E00E946901109217011092DF
S1130360160180E00E94830180910001823469F4C7
S11303700E947F0181E191E00E94690110921701BE
S11303801092160180E00E9483019FEF21EE84E029
S1130390915020408040E1F700C000008091160198
S11303A09091170101969093170180931601109272
S10B03B00001B5CFF894FFCF62
S11303B8204C6F73204D6F6E6F73206C6F636F7377
S10903C8006D656E750076
S9030000FC
