:100000000C9434000C9451000C9451000C94510049
:100010000C9451000C9451000C9451000C9451001C
:100020000C9451000C9451000C9451000C9451000C
:100030000C9451000C9451000C9451000C945100FC
:100040000C94FA000C9451000C9451000C94510043
:100050000C9451000C9451000C9451000C945100DC
:100060000C9451000C94510011241FBECFEFD8E026
:10007000DEBFCDBF11E0A0E0B1E0EAE0FBE002C0EE
:1000800005900D92AE30B107D9F721E0AEE0B1E0B6
:1000900001C01D92AA31B207E1F70E9462010C94DF
:1000A00083050C940000982F907F9695969598B9AB
:1000B00098B19E7F98B998B1926098B9EFE9FFE046
:1000C0003197F1F700C0000098B19D7F98B9EFE338
:1000D000FCE93197F1F700C0000090E0880F991F0C
:1000E000880F991F8C7388B988B18E7F88B988B1C1
:1000F000826088B98FE99FE00197F1F700C00000A6
:1001000088B18D7F88B9EFE3FCE93197F1F700C042
:100110000000089582E00E94530088E20E9453008C
:100120008EE00E94530086E00E94530081E00E940E
:10013000530080E80E9453000895982F907F969571
:10014000969598B998B1936098B9EFE9FFE0319727
:10015000F1F700C0000098B19D7F98B998B19E7FDB
:1001600098B9EFE3FCE93197F1F700C0000090E0A7
:10017000880F991F880F991F8C7388B988B1836085
:1001800088B98FE99FE00197F1F700C0000088B1BE
:100190008D7F88B988B18E7F88B9EFE3FCE931970C
:1001A000F1F700C0000008950F931F93CF93DF93E2
:1001B0008C01C0E0D0E003C00E949D002196F801B0
:1001C000EC0FFD1F80818111F7CFDF91CF911F913F
:1001D0000F91089581E00E945300089582E00E94EB
:1001E0005300089580680E9453000895806C0E9417
:1001F000530008951F920F920FB60F9211242F9360
:100200003F934F935F936F937F938F939F93AF939E
:10021000BF93EF93FF9320E030E048EC52E460910D
:1002200016017091170180911801909119010E9497
:10023000BF0320E030E04FE753E40E94E1040E9456
:10024000380467BD20E030E048EC52E460911201D0
:100250007091130180911401909115010E94BF03C8
:1002600020E030E04FE753E40E94E1040E943804AC
:1002700068BD20E030E048EC52E460910E017091DE
:100280000F0180911001909111010E94BF0320E0A5
:1002900030E04FE753E40E94E1040E943804609389
:1002A000B400FF91EF91BF91AF919F918F917F919A
:1002B0006F915F914F913F912F910F900FBE0F90D3
:1002C0001F901895CF93DF93CDB7DEB76E970FB61B
:1002D000F894DEBF0FBECDBF8AB188608AB98AB1FB
:1002E00080628AB98AB180648AB914B88FEF87B9FD
:1002F00083EA84BDEEE6F0E021E02083789495E087
:1003000095BDA0EBB0E08C918B628C932083909391
:10031000B10020E030E048EC52E4609116017091A9
:10032000170180911801909119010E94BF0320E0EC
:1003300030E04FE753E40E94E1040E94380467BDB7
:1003400020E030E048EC52E460911201709113011A
:1003500080911401909115010E94BF0320E030E0CC
:100360004FE753E40E94E1040E94380468BD20E096
:1003700030E048EC52E460910E0170910F018091E1
:100380001001909111010E94BF0320E030E04FE77F
:1003900053E40E94E1040E9438046093B4000E9478
:1003A0008A000E94EA000E94EE0083B12FEF36E738
:1003B00091E0215030409040E1F700C000008430CF
:1003C000F1F128F4813069F0823011F193C080316D
:1003D00009F463C0803209F477C0883009F08AC01C
:1003E00045C020E030E040E251E460911601709198
:1003F000170180911801909119010E944E0360939A
:10040000160170931701809318019093190172C01F
:1004100020E030E040E251E4609116017091170154
:1004200080911801909119010E944D03609316016B
:100430007093170180931801909319015BC020E01D
:1004400030E040E251E4609112017091130180911B
:100450001401909115010E944E0360931201709354
:100460001301809314019093150144C020E030E003
:1004700040E251E4609112017091130180911401E6
:10048000909115010E944D03609312017093130126
:1004900080931401909315012DC020E030E040E2DC
:1004A00051E460910E0170910F01809110019091C3
:1004B00011010E944E0360930E0170930F0180930F
:1004C00010019093110116C020E030E040E251E4A9
:1004D00060910E0170910F018091100190911101B6
:1004E0000E944D0360930E0170930F0180931001E1
:1004F00090931101C0901601D0901701E09018015F
:10050000F090190120E030E048EC52E4C701B60158
:100510000E94DC0418164CF020E030E0A901C7016D
:10052000B6010E94BA03882354F410921601109267
:10053000170110921801109219010E94EA00C09050
:100540001201D0901301E0901401F090150120E009
:1005500030E048EC52E4C701B6010E94DC041816F2
:100560004CF020E030E0A901C701B6010E94BA03B7
:10057000882354F410921201109213011092140166
:10058000109215010E94EA00C0900E01D0900F0158
:10059000E0901001F090110120E030E048EC52E4CE
:1005A000C701B6010E94DC0418164CF020E030E0D0
:1005B000A901C701B6010E94BA03882354F410921E
:1005C0000E0110920F0110921001109211010E9461
:1005D000EA0081E00E94F20060911601709117011B
:1005E00080911801909119010E943104DC01CB0126
:1005F0004AE0BE016F5F7F4F0E944E0580E091E0B0
:100600000E94D400CE0101960E94D40084E091E0C3
:100610000E94D40089E00E94F20060911201709162
:10062000130180911401909115010E943104DC01A5
:10063000CB014AE0BE01655F7F4F0E944E0586E018
:1006400091E00E94D400CE010B960E94D40084E079
:1006500091E00E94D40081E00E94F60060910E01BA
:1006600070910F0180911001909111010E9431044D
:10067000DC01CB014AE0BE016B5E7F4F0E944E055C
:100680008AE091E00E94D400CE0145960E94D400F9
:1006900084E091E00E94D40088CE5058BB27AA275E
:1006A0000E9465030C94A2040E94940438F00E94F6
:1006B0009B0420F039F49F3F19F426F40C94910424
:1006C0000EF4E095E7FB0C948B04E92F0E94B30431
:1006D00058F3BA17620773078407950720F079F477
:1006E000A6F50C94D5040EF4E0950B2EBA2FA02D90
:1006F0000B01B90190010C01CA01A0011124FF27CF
:10070000591B99F0593F50F4503E68F11A16F040C9
:10071000A22F232F342F4427585FF3CF46953795C8
:100720002795A795F0405395C9F77EF41F16BA0B8D
:10073000620B730B840BBAF09150A1F0FF0FBB1F3B
:10074000661F771F881FC2F70EC0BA0F621F731F84
:10075000841F48F4879577956795B795F7959E3FE1
:1007600008F0B0CF9395880F08F09927EE0F979572
:10077000879508950E94670408F481E008950E9417
:10078000D3030C94A2040E949B0458F00E9494048A
:1007900040F029F45F3F29F00C948B0451110C9424
:1007A000D6040C9491040E94B30468F39923B1F326
:1007B000552391F3951B550BBB27AA276217730787
:1007C000840738F09F5F5F4F220F331F441FAA1F1B
:1007D000A9F335D00E2E3AF0E0E832D091505040D7
:1007E000E695001CCAF72BD0FE2F29D0660F771F85
:1007F000881FBB1F261737074807AB07B0E809F06B
:10080000BB0B802DBF01FF2793585F4F3AF09E3FEF
:10081000510578F00C948B040C94D6045F3FE4F3FC
:10082000983ED4F3869577956795B795F7959F5F32
:10083000C9F7880F911D9695879597F90895E1E07E
:10084000660F771F881FBB1F621773078407BA07DD
:1008500020F0621B730B840BBA0BEE1F88F7E09538
:1008600008950E9438046894B1110C94D604089538
:100870000E94BB0488F09F5798F0B92F9927B75171
:10088000B0F0E1F0660F771F881F991F1AF0BA9534
:10089000C9F714C0B13091F00E94D504B1E00895B9
:1008A0000C94D504672F782F8827B85F39F0B93FAB
:1008B000CCF3869577956795B395D9F73EF49095E7
:1008C0008095709561957F4F8F4F9F4F0895990F39
:1008D0000008550FAA0BE0E8FEEF16161706E8070A
:1008E000F907C0F012161306E407F50798F0621B2B
:1008F000730B840B950B39F40A2661F0232B242B00
:10090000252B21F408950A2609F4A140A6958FEF1E
:10091000811D811D089597F99F6780E870E060E070
:1009200008959FEF80EC089500240A941616170688
:1009300018060906089500240A94121613061406D0
:1009400005060895092E0394000C11F4882352F033
:10095000BB0F40F4BF2B11F460FF04C06F5F7F4FEB
:100960008F4F9F4F089557FD9058440F551F59F0D2
:100970005F3F71F04795880F97FB991F61F09F3F8C
:1009800079F087950895121613061406551FF2CFB5
:100990004695F1DF08C0161617061806991FF1CF05
:1009A00086957105610508940895E894BB2766272C
:1009B0007727CB0197F908950E94670408F48FEF19
:1009C00008950E94F4040C94A2040E94940438F048
:1009D0000E949B0420F0952311F00C948B040C943E
:1009E000910411240C94D6040E94B30470F3959FD3
:1009F000C1F3950F50E0551F629FF001729FBB2716
:100A0000F00DB11D639FAA27F00DB11DAA1F649FB1
:100A10006627B00DA11D661F829F2227B00DA11D64
:100A2000621F739FB00DA11D621F839FA00D611DEA
:100A3000221F749F3327A00D611D231F849F600D0B
:100A4000211D822F762F6A2F11249F5750409AF034
:100A5000F1F088234AF0EE0FFF1FBB1F661F771FC0
:100A6000881F91505040A9F79E3F510580F00C948B
:100A70008B040C94D6045F3FE4F3983ED4F3869540
:100A800077956795B795F795E7959F5FC1F7FE2B2B
:100A9000880F911D9695879597F90895BB274A3041
:100AA00031F4992322F4BDE2909581959F4F0C94E7
:100AB0005A05BB27FB015527AA27880F991FAA1F94
:100AC000A41710F0A41B83955051B9F7A05DAA3369
:100AD00008F0A95DA193009779F7B111B193119234
:100AE000CB010C947305DC01FC01672F7191772316
:100AF000E1F7329704C07C916D9370836291AE17D9
:0A0B0000BF07C8F30895F894FFCF73
:0E0B0A00523A20002500473A2000423A2000CF
:00000001FF
