:100000000C9434000C9451000C9451000C94510049
:100010000C9451000C9451000C9451000C9451001C
:100020000C9451000C9451000C9451000C9451000C
:100030000C9451000C9451000C9451000C945100FC
:100040000C94FA000C9451000C9451000C94510043
:100050000C9451000C9451000C9451000C945100DC
:100060000C9451000C94510011241FBECFEFD8E026
:10007000DEBFCDBF11E0A0E0B1E0E4E4F4E002C0F7
:1000800005900D92A235B107D9F721E0A2E5B1E0C4
:1000900001C01D92A036B207E1F70E9446010C9400
:1000A00020020C940000982F907F9695969598B911
:1000B00098B19E7F98B998B1926098B9EFE9FFE046
:1000C0003197F1F700C0000098B19D7F98B9EFE338
:1000D000FCE93197F1F700C0000090E0880F991F0C
:1000E000880F991F8C7388B988B18E7F88B988B1C1
:1000F000826088B98FE99FE00197F1F700C00000A6
:1001000088B18D7F88B9EFE3FCE93197F1F700C042
:100110000000089582E00E94530088E20E9453008C
:100120008EE00E94530086E00E94530081E00E940E
:10013000530080E80E9453000895982F907F969571
:10014000969598B998B1936098B9EFE9FFE0319727
:10015000F1F700C0000098B19D7F98B998B19E7FDB
:1001600098B9EFE3FCE93197F1F700C0000090E0A7
:10017000880F991F880F991F8C7388B988B1836085
:1001800088B98FE99FE00197F1F700C0000088B1BE
:100190008D7F88B988B18E7F88B9EFE3FCE931970C
:1001A000F1F700C0000008950F931F93CF93DF93E2
:1001B0008C01C0E0D0E003C00E949D002196F801B0
:1001C000EC0FFD1F80818111F7CFDF91CF911F913F
:1001D0000F91089581E00E945300089582E00E94EB
:1001E0005300089580680E9453000895806C0E9417
:1001F000530008951F920F920FB60F9211242F9360
:100200003F934F935F936F937F938F939F93AF939E
:10021000BF93EF93FF9380E88BB92FEF89E698E1C6
:10022000215080409040E1F700C000001BB80E94C0
:10023000EA0083E00E94F20080E091E00E94D40096
:100240002FEF83ED90E3215080409040E1F700C014
:10025000000081E090E0909355018093540110924A
:100260005301109252018FEF86BDFF91EF91BF9124
:10027000AF919F918F917F916F915F914F913F913E
:100280002F910F900FBE0F901F901895F89487E054
:1002900085BD81E080936E0080E88AB914B88FEF45
:1002A00087B986BD78940E948A000E94EA000E9465
:1002B000EE0010925501109254010E94EA0081E074
:1002C0000E94F2008DE091E00E94D40082E00E9442
:1002D000F6008DE191E00E94D40042C083B18E709F
:1002E00090E09595879582309105B9F0843091051D
:1002F00031F10197A9F50E94EA0083E00E94F20023
:1003000089E291E00E94D4008DEF86BD81E090E00B
:10031000909355018093540123C00E94EA0083E02A
:100320000E94F20083E391E00E94D4008BEF86BD2F
:1003300081E090E0909355018093540111C00E9498
:10034000EA0083E00E94F2008DE391E00E94D40075
:1003500089EF86BD81E090E0909355018093540130
:100360008091540190915501892B09F4B7CF1092D7
:1003700055011092540180E00E94F60087E491E05C
:100380000E94D40021C089B12FEF32E597E02150BF
:1003900030409040E1F700C0000084FF15C088E0C5
:1003A0000E94F60080915201909153010196909322
:1003B0005301809352014AE066E571E00E94EB012F
:1003C00086E591E00E94D4008091540190915501FE
:1003D000892BC9F26ECFBB274A3031F4992322F41E
:1003E000BDE2909581959F4F0C94F701BB27FB01CF
:1003F0005527AA27880F991FAA1FA41710F0A41B1E
:1004000083955051B9F7A05DAA3308F0A95DA19377
:10041000009779F7B111B1931192CB010C941002AE
:10042000DC01FC01672F71917723E1F7329704C05B
:100430007C916D9370836291AE17BF07C8F30895E6
:04044000F894FFCF5E
:1004440059612065737461732070646F0043756132
:100454006E746173206368656C61733F00413A3266
:1004640020423A3420433A36004168692076616E6E
:100474002032004168692076616E20340041686949
:100484002076616E2036004C6C657661733A2030BC
:02049400000066
:00000001FF
