:100000000C9434000C9449000C9449000C94490061
:100010000C9449000C9449000C9449000C9449003C
:100020000C9449000C9449000C9449000C9449002C
:100030000C9449000C9449000C9449000C9449001C
:100040000C9449000C9449000C9449000C9449000C
:100050000C9449000C9449000C9449000C944900FC
:100060000C9449000C94490011241FBECFEFD8E036
:10007000DEBFCDBF11E0A0E0B1E0E2EEF9E002C0EA
:1000800005900D92AA31B107D9F70E9465040C942E
:10009000EF040C940000982F907F9695969598B950
:1000A00098B19E7F98B998B1926098B9EFE9FFE056
:1000B0003197F1F700C0000098B19D7F98B9EFE348
:1000C000FCE93197F1F700C0000090E0880F991F1C
:1000D000880F991F8C7388B988B18E7F88B988B1D1
:1000E000826088B98FE99FE00197F1F700C00000B6
:1000F00088B18D7F88B9EFE3FCE93197F1F700C053
:100100000000089582E00E944B0088E20E944B00AC
:100110008EE00E944B0086E00E944B0081E00E942E
:100120004B0080E80E944B000895982F907F969591
:10013000969598B998B1936098B9EFE9FFE0319737
:10014000F1F700C0000098B19D7F98B998B19E7FEB
:1001500098B9EFE3FCE93197F1F700C0000090E0B7
:10016000880F991F880F991F8C7388B988B1836095
:1001700088B98FE99FE00197F1F700C0000088B1CE
:100180008D7F88B988B18E7F88B9EFE3FCE931971C
:10019000F1F700C00000089580E40E944B008FE951
:1001A0009FE00197F1F700C000008FE10E949500E9
:1001B0008FE99FE00197F1F700C0000085E10E9400
:1001C00095008FE99FE00197F1F700C0000085E1FD
:1001D0000E9495008FE99FE00197F1F700C00000B1
:1001E0008FE10E9495008FE99FE00197F1F700C031
:1001F00000008AE00E9495008FE99FE00197F1F7E7
:1002000000C0000085E10E9495008FE99FE0019702
:10021000F1F700C000008FE10E9495008FE99FE098
:100220000197F1F700C0000080E00E9495008FE97F
:100230009FE00197F1F700C00000089588E40E9454
:100240004B008FE99FE00197F1F700C0000080E0CC
:100250000E9495008FE99FE00197F1F700C0000030
:100260008AE00E9495008FE99FE00197F1F700C0B6
:1002700000008FE10E9495008FE99FE00197F1F760
:1002800000C000008FE10E9495008FE99FE0019778
:10029000F1F700C000008FE10E9495008FE99FE018
:1002A0000197F1F700C000008EE00E9495008FE9F1
:1002B0009FE00197F1F700C0000084E00E949500E4
:1002C0008FE99FE00197F1F700C0000080E00E94F5
:1002D00095008FE99FE00197F1F700C000000895B5
:1002E00080E50E944B008FE99FE00197F1F700C085
:1002F000000080E00E9495008FE99FE00197F1F7F0
:1003000000C0000083E00E9495008FE99FE0019704
:10031000F1F700C0000087E00E9495008FE99FE0A0
:100320000197F1F700C0000086E10E9495008FE977
:100330009FE00197F1F700C0000088E00E9495005F
:100340008FE99FE00197F1F700C0000084E10E946F
:1003500095008FE99FE00197F1F700C0000080E071
:100360000E9495008FE99FE00197F1F700C000001F
:1003700080E00E9495008FE99FE00197F1F700C0AF
:100380000000089588E50E944B008FE99FE00197E7
:10039000F1F700C0000080E00E9495008FE99FE027
:1003A0000197F1F700C000008AE00E9495008FE9F4
:1003B0009FE00197F1F700C000008EE00E949500D9
:1003C0008FE99FE00197F1F700C0000084E00E94F0
:1003D00095008FE99FE00197F1F700C0000084E0ED
:1003E0000E9495008FE99FE00197F1F700C000009F
:1003F0008EE00E9495008FE99FE00197F1F700C021
:1004000000008AE00E9495008FE99FE00197F1F7D4
:1004100000C0000080E00E949500089580E60E94E0
:100420004B008FE99FE00197F1F700C000008EE0DC
:100430000E9495008FE99FE00197F1F700C000004E
:100440008AE10E9495008FE99FE00197F1F700C0D3
:1004500000008EE10E9495008FE99FE00197F1F77F
:1004600000C000008AE10E9495008FE99FE001979B
:10047000F1F700C0000080E10E9495008FE99FE045
:100480000197F1F700C000008AE10E9495008FE912
:100490009FE00197F1F700C000008EE10E949500F7
:1004A0008FE99FE00197F1F700C000008EE10E9404
:1004B00095008FE99FE00197F1F700C000000895D3
:1004C00088E60E944B008FE99FE00197F1F700C09A
:1004D00000008FE10E9495008FE99FE00197F1F7FE
:1004E00000C0000085E10E9495008FE99FE0019720
:1004F000F1F700C000008FE10E9495008FE99FE0B6
:100500000197F1F700C0000081E10E9495008FE99A
:100510009FE00197F1F700C0000084E00E94950081
:100520008FE99FE00197F1F700C0000081E10E9490
:1005300095008FE99FE00197F1F700C000008BE183
:100540000E9495008FE99FE00197F1F700C000003D
:100550008FE10E9495008FE99FE00197F1F700C0BD
:100560000000089580E70E944B008FE99FE001970B
:10057000F1F700C000008FE10E9495008FE99FE035
:100580000197F1F700C0000085E10E9495008FE916
:100590009FE00197F1F700C000008FE10E949500F5
:1005A0008FE99FE00197F1F700C0000084E00E940E
:1005B00095008FE99FE00197F1F700C0000084E00B
:1005C0000E9495008FE99FE00197F1F700C00000BD
:1005D00085E10E9495008FE99FE00197F1F700C047
:1005E00000008AE00E9495008FE99FE00197F1F7F3
:1005F00000C0000085E10E9495008FE99FE001970F
:10060000F1F700C00000089588E70E944B008FE9D1
:100610009FE00197F1F700C0000080E00E94950084
:100620008FE99FE00197F1F700C000008AE00E9487
:1006300095008FE99FE00197F1F700C000008EE080
:100640000E9495008FE99FE00197F1F700C000003C
:100650008AE00E9495008FE99FE00197F1F700C0C2
:1006600000008FE10E9495008FE99FE00197F1F76C
:1006700000C000008EE00E9495008FE99FE0019786
:10068000F1F700C000008AE00E9495008FE99FE02A
:100690000197F1F700C0000080E00E9495008FE90B
:1006A0009FE00197F1F700C0000008950F931F939A
:1006B000CF93DF938C01C0E0D0E003C00E9495008F
:1006C0002196F801EC0FFD1F80818111F7CFDF919A
:1006D000CF911F910F91089581E00E944B000895E2
:1006E00082E00E944B0008958CE10E944B00089527
:1006F00084E00E944B00089586E00E944B0008951C
:10070000806C0E944B000895CF93DF9384E00E9499
:10071000950080E20E9495002FEF80E792E0215043
:1007200080409040E1F700C0000087E00E94950003
:10073000C0E0D0E00CC00E9474032FEF87E893E183
:10074000215080409040E1F700C000002196CA305F
:10075000D1058CF30E9478038FE99FE00197F1F7B0
:1007600000C0000080E20E9495008FE39CE90197A1
:10077000F1F700C000000E9478038FE99FE0019725
:10078000F1F700C0000080E20E9495008FE39CE931
:100790000197F1F700C000000E9478038FE99FE005
:1007A0000197F1F700C0000080E20E9495008FE3FE
:1007B0009CE90197F1F700C000000E947C038FE3E1
:1007C0009CE90197F1F700C0000080E20E949500CB
:1007D0008FE39CE90197F1F700C0000080E20E94DE
:1007E00095008FE39CE90197F1F700C0000080E2DB
:1007F0000E9495008FE39CE90197F1F700C000008B
:1008000084E00E9495009FEF29E688E19150204006
:100810008040E1F700C0000087E00E9495009FEF54
:1008200029E688E1915020408040E1F700C00000B7
:100830000E9478038FE99FE00197F1F700C0000064
:1008400080E20E9495008FE39CE90197F1F700C0D8
:1008500000000E9478038FE99FE00197F1F700C044
:10086000000080E20E9495008FE39CE90197F1F778
:1008700000C000000E947C038FE99FE00197F1F720
:1008800000C0000080E20E9495008FE39CE9019780
:10089000F1F700C0000080E20E9495008FE39CE920
:1008A0000197F1F700C0000084E00E9495009FEFDF
:1008B00023ED80E3915020408040E1F700C000002C
:1008C0000E946C03DF91CF9108958FEF87B90E944A
:1008D00082000E946C030E94CC002FEF81EE94E016
:1008E000215080409040E1F700C000000E941E01AE
:1008F0002FEF81EE94E0215080409040E1F700C05E
:1009000000000E9470012FEF81EE94E021508040A2
:100910009040E1F700C000000E94C2012FEF81EE7D
:1009200094E0215080409040E1F700C000000E9418
:100930000E022FEF81EE94E0215080409040E1F7CD
:1009400000C000000E9460022FEF81EE94E0215071
:1009500080409040E1F700C000000E94B2022FEFFB
:1009600081EE94E0215080409040E1F700C000000B
:100970000E9404032FEF81EE94E0215080409040CC
:10098000E1F700C000000E946C030E9470030E9407
:10099000840380E091E00E94560380E00E9495006D
:1009A00081E00E94950080E00E9480038EE091E04B
:1009B0000E94560382E00E94950083E00E94950009
:1009C00084E00E94950085E00E94950086E00E94E8
:1009D000950087E00E94950080E090E00895F894EB
:0209E000FFCF47
:1009E200454C495A415252415241532047003230FC
:0A09F200313531373032373600005E
:00000001FF
